:020000040800F2
:10000000E80B002089010008D32200089915000898
:10001000D1220008D3020008F524000800000000E7
:10002000000000000000000000000000D7220008CF
:10003000D502000800000000D5220008D9220008DF
:10004000A3010008A3010008A3010008A301000800
:10005000A3010008A3010008A3010008A3010008F0
:10006000A3010008A3010008A3010008A3010008E0
:10007000A3010008A3010008A3010008A3010008D0
:10008000A3010008A3010008A3010008A3010008C0
:10009000A3010008A3010008A3010008A3010008B0
:1000A000A3010008A3010008A3010008A3010008A0
:1000B000A3010008A3010008A3010008A301000890
:1000C000A3010008A91500089D150008A301000858
:1000D000A3010008E9240008A3010008A301000807
:1000E000A3010008A3010008A301000800F002F822
:1000F00000F03AF80AA090E8000C82448344AAF188
:100100000107DA4501D100F02FF8AFF2090EBAE885
:100110000F0013F0010F18BFFB1A43F0010318473B
:10012000603E0000803E0000103A24BF78C878C1CD
:10013000FAD8520724BF30C830C144BF04680C60ED
:10014000704700000023002400250026103A28BF35
:1001500078C1FBD8520728BF30C148BF0B60704739
:100160001FB51FBD10B510BD00F07AF81146FFF79E
:10017000F7FF02F0D5F900F098F803B4FFF7F2FFAB
:1001800003BC00F09FF80000094880470948004779
:10019000FEE7FEE7FEE7FEE7FEE7FEE7FEE7FEE737
:1001A000FEE7FEE704480549054A064B7047000094
:1001B00039230008ED000008E8050020E80B0020C6
:1001C000E8070020E80700204FF000020429C0F0F3
:1001D000128010F0030C00F01B80CCF1040CBCF179
:1001E000020F18BF00F8012BA8BF20F8022BA1EBCB
:1001F0000C0100F00DB85FEAC17C24BF00F8012BB0
:1002000000F8012B48BF00F8012B70474FF00002A7
:1002100000B5134694469646203922BFA0E80C50FC
:10022000A0E80C50B1F12001BFF4F7AF090728BFD7
:10023000A0E80C5048BF0CC05DF804EB890028BF53
:1002400040F8042B08BF704748BF20F8022B11F07C
:10025000804F18BF00F8012B7047704770477047F8
:10026000754600F02BF8AE4605006946534620F06F
:100270000700854618B020B5FFF794FFBDE8204081
:100280004FF000064FF000074FF000084FF0000B52
:1002900021F00701AC46ACE8C009ACE8C009ACE805
:1002A000C009ACE8C0098D46704710B50446AFF3ED
:1002B00000802046BDE81040FFF75FBF0048704750
:1002C0008405002001491820ABBEFEE7260002008D
:1002D0007047FEE7704772B6FEE710B590F8211040
:1002E0000022022905D00421816380F8202001200A
:1002F00010BD01680B6823F00E030B6001680B68EA
:1003000023F001030B6090F84030C46B012101FA27
:1003100003F3636080F8211080F82020104610BDA0
:1003200010B590F821100024022903D00421816324
:1003300001243DE001680A6822F00E020A600168AB
:100340000A6822F001020A601A4A0168914201D14A
:10035000012121E0174A1432914201D110211BE002
:10036000144A2832914201D1891515E0114A3C32D4
:10037000914201D189140FE00E4A5032914202D1CC
:100380004FF4803108E00B4A6432914202D14FF4BD
:10039000801101E04FF08071064A083A5160012156
:1003A00080F82110002180F82010416B01B18847AE
:1003B000204610BD0800024090F821007047000060
:1003C00070B5044600F0FEF80546601C02D00448F3
:1003D0000078044400F0F6F8401BA042FAD370BD48
:1003E000080000202DE9F84FDFF8B891002409F14A
:1003F000040A0AF1040B23460F270BF1040EC9E08F
:100400000125A5402A40AA427DD1674ED1F804C0FB
:10041000ACEB0608B44532D014DCBCF1030F3AD083
:1004200009DCBCF1000F2AD0BCF1010F1CD0BCF1DB
:10043000020F31D11DE0BCF1110F17D0BCF1120F2A
:100440002AD119E0B8F5881F19D006DCB8F5803F2D
:1004500015D0B8F5801F1FD111E0B8F5001F0ED0E0
:10046000B8F5041F18D10AE0CB6815E0CB681B1D56
:1004700012E0CB6808330FE0CB680C330CE08B68DC
:100480002BB1012B4FF0080303D0456104E0042396
:1004900002E0056100E00023FF2A01D8064601E0E2
:1004A00000F104064FEA840501D9A5F12005D6F82C
:1004B000008007FA05FC28EA0C0803FA05F548EA6B
:1004C0000508C6F800804D68ED0062D5374DAE696D
:1004D00046F00106AE61AD6924F0030605F00105A2
:1004E0000095334D06EB050CDCF80850A607360FD7
:1004F00007FA06F825EA0805DFF8B880404503D179
:100500004FF0000817E044E0DFF8AC80404502D12E
:100510004FF001080FE0DFF8A480404502D14FF012
:10052000020808E0DFF89880404502D14FF0030848
:1005300001E04FF0040808FA06F848EA0508CCF88C
:1005400008804D68D9F80060ED034D4601D516438B
:1005500000E096432E604D68DAF80060AD03554622
:1005600001D5164300E096432E604D68DBF800602D
:10057000ED025D4601D5164300E096432E604D68BE
:10058000DEF80060AD02754601D5164300E09643E3
:100590002E60641C0D682A46E5407FF431AFBDE84B
:1005A000F88F00000004014000001110001002400C
:1005B0000000014000080140000C01400010014013
:1005C00000140140014880687047000008000020C6
:1005D000704770472DE9F041016804464A694E684A
:1005E00090F83E000025D743FA050BD4F243D2051C
:1005F00008D46FF4807201254A6121680A6842F4C8
:1006000000420A60B90508D4F143C90505D422683F
:100610006FF4007145F002055161790525D4F1436D
:10062000C90522D4638D94F83D10226B202808D18F
:100630003BB9212910D029290ED0282901D1212AFE
:100640000AD022686FF48061516145F004051028DA
:1006500006D0402804D008E0204601F0FBFB04E06F
:100660002068016841F400710160380508D4F04346
:10067000C00505D421686FF4006045F008054861A5
:10068000002D07D0206C284320642046BDE8F041AF
:1006900000F0EEBFBDE8F0812DE9F04702680021CF
:1006A0005368C66A90F83E4090F83D50102C12D026
:1006B000402C10D0046C002C7DD05469E443A60774
:1006C0007AD4DE43B60577D4036C03B19169BDE8F3
:1006D000F04701F09BBB976951694FF42A0CC9435D
:1006E0005FEAC1784FF02A4904D066452AD04E45CA
:1006F00028D010E0DE43B6050DD4C16A614501D1B2
:10070000012103E0C16A494501D10821C162BDE868
:10071000F04701F0E5BA0E0716D4DE43B60513D450
:10072000416CC9B21161416B09B1896A29B9816B08
:10073000002907D0896A002904D00068416841F483
:1007400000614160BDE8F0878E0706D4DE43B60540
:1007500003D4BDE8F04701F017BAFE4352687607AC
:100760004FEA02521DD4002AECDB0A0608D4DA4311
:10077000520505D4490705D5BDE8F04701F0A8B9F1
:100780004907DFD4D9438905DCD4212D05D0402C7D
:10079000D8D1BDE8F04701F0E9BABDE8F04701F073
:1007A00055B9002ACEDB4A060BD4DA43520508D4E9
:1007B000490708D501E00DE00EE0BDE8F04701F083
:1007C00083B84907BED4D9438905BBD4BDE8F047F7
:1007D00001F011B8916970E7E10606D4D9438905A3
:1007E00003D4BDE8F04701F077BB2821212D27D0A5
:1007F000292D25D0650655D4DD436D0552D46407F7
:1008000052D590F83D30448D002C9BD01269446A3B
:100810002270426A521C4262428D521E4285428DB3
:10082000002A8FD12A2B8DD10268536823F480636C
:1008300053602222026380F83D1000F003FA81E742
:10084000250623D4DD436D0520D4640720D590F818
:100850003D30448D002CF2D0446A24781461426A01
:10086000521C4262428D521E4285428D002AE6D1C0
:10087000292BE4D10268536823F48063536021225A
:10088000026380F83D1000F0DEF95BE76107D6D423
:10089000D9438905D3D4418D0029D0D0416A097844
:1008A00011610AE06107CAD4D9438905C7D4418DD3
:1008B0000029C4D01169426A1170416A491C416221
:1008C000418D491E41853DE77047000070B5040029
:1008D00025D094F83D00002520B984F83C502046EE
:1008E00000F054F9242084F83D002068016821F0CC
:1008F000010101602068016841F400410160206845
:10090000016821F40041016000F0CCFA4D4A6168B1
:10091000914201D84C4900E04C49884201D2012063
:1009200070BD4B492368B0FBF1F15E6826F03F06CD
:100930000E435E606368934206D94FF49673594341
:100940004FF47A73B1FBF3F12368491C1E6A26F059
:100950003F06314319626168914210D84900401E38
:10096000B0FBF1F2521CC2F30B02042A01D20420A4
:1009700022E0B0FBF1F0401CC0F30B001CE0A268C9
:10098000F2B301EBC10303EB0116431EB3FBF6F315
:100990005B1C43F480431B0549D092B301EBC102B9
:1009A00002EB0111401EB0FBF1F0401CC0F30B0044
:1009B00040F4804040F400402168CA694CF6FF735F
:1009C0009A431043C861D4E90710014320680268C4
:1009D00022F0C00211430160D4E903010143206801
:1009E000826848F2FF339A4311438160D4E90501DC
:1009F00008432168CA6822F0FF021043C86001E082
:100A00000EE016E02068016841F0010101602564F4
:100A1000202084F83D00256384F83E50002070BDFE
:100A200001EB4106431EB3FBF6F35B1CB3E7012069
:100A3000C2E701EB4101401EB0FBF1F0401CC0F3E6
:100A40000B00B7E7A086010080841E0000093D006E
:100A500040420F0070477047704700002DE9F84F83
:100A60001F4690468A460446DDF82890FFF7AAFD07
:100A7000054694F83D0020287FD1192301224049E2
:100A80002046009501F0FCFA002876D194F83C004D
:100A9000012872D0012084F83C0020680168C90751
:100AA00003D1016841F0010101602068016821F46F
:100AB00000610160212084F83D00102084F83E0090
:100AC00000262664C4F824806785608D20852D4823
:100AD000E0622B464A465146204600F069FF90B935
:100AE000206841698069009036E02A4649462046E0
:100AF00001F045FB50B1206C042804D12068016846
:100B000041F4007101600120BDE8F88F606A21683E
:100B100000780861606A401C6062618D491E6185D1
:100B2000218D491E89B2218522685369DB435B0709
:100B30000BD451B100781061606A401C6062608D16
:100B4000401E6085208D401E20852A46494620464D
:100B500001F070FA0028CED1208D0028C5D154F8BC
:100B60003D0B016841F400710160202004F81E096A
:100B7000E67766770020C7E7FFE70220C4E70000BA
:100B8000020010000000FFFF7047704730B585B0CD
:100B900000210091019102910391264D0368264C9A
:100BA000122103222548AB4218D1A36943F0080360
:100BB000A361A369039203F008030493C023CDE962
:100BC00000316946FFF70EFCE06940F40010E06177
:100BD000E06900F40010049005B030BD184DAB4240
:100BE000FAD1A36943F00803A361A369039203F058
:100BF000080304934FF44063CDE900316946FFF7E1
:100C0000F1FBE06940F48000E061E069002200F45B
:100C1000800004900221212000F07CF8212000F0C7
:100C20006BF800220421222000F074F8222000F04A
:100C300063F8D1E70054004000100240000C01406E
:100C4000005800407047704702488168027811449C
:100C50008160704708000020074810B5016841F026
:100C600010010160032000F075F80F2000F006F875
:100C700000F024F8002010BD0020024070B50D4D9A
:100C800004464FF47A712878B1FBF0F00A490968FC
:100C9000B1FBF0F000F0F0FA48B9102C07D20022B6
:100CA0002146501E00F036F800206C6070BD012017
:100CB00070BD000008000020140000200C4808B59A
:100CC000816941F001018161816901F001010091B7
:100CD000C16941F08051C161C06900F0805000904D
:100CE0000448416821F0E06141F00071416008BDB5
:100CF0000010024000000140002809DB00F01F0244
:100D0000012191404009800000F1E020C0F800116D
:100D100070470000F0B40E4B1B680C46C3F302236F
:100D2000C3F10705042D00D90425191D072901D297
:100D3000002300E0DB1E012606FA05F1491E2140D2
:100D400099409E40761E16403143F0BC01F0D3BB63
:100D50000CED00E0064900F0070208684FF6FF03BB
:100D6000184040EA0220034A104308607047000020
:100D70000CED00E00000FA052DE9F0470F460500F4
:100D800061D0434E306800F00700B84209D23068A5
:100D900020F0070038433060306800F00700B842A8
:100DA00051D128683B4C810712D5400703D56068B4
:100DB00040F4E06060602878000703D5606840F484
:100DC000605060606068A96820F0F00008436060CF
:100DD0002878C00728D06868012810D02168022828
:100DE00010D0890700292EDA616821F00301014340
:100DF0006160FFF7E7FB804641F288390DE021682A
:100E00008903EFE78901EDE7FFF7DCFBA0EB0801C1
:100E1000494502D90320BDE8F0876068696800F0A1
:100E20000C00B0EB810FEFD1306800F00700B84242
:100E30000BD9306820F0070038433060306800F08C
:100E40000700B84201D00120E5E72878400705D522
:100E50006068E96820F4E060084360602878000773
:100E600006D56068296920F4605040EAC1006060DE
:100E700000F038F86168084AC1F30311515CC840BA
:100E80000649086006480068FFF7F8FE0020C2E740
:100E90000020024000100240683F000814000020BB
:100EA0000C0000200448054900684968044AC1F361
:100EB0000221515CC840704714000020001002401D
:100EC000783F00080448054900684968044AC1F3AE
:100ED000C221515CC840704714000020001002403D
:100EE000783F000813A185B00FC98DE80F0015A049
:100EF000154A00680490516801F00C00042804D0E1
:100F0000082804D0114805B070471148FBE7C1F329
:100F10008343C9031DF8030009D5516804AAC1F32E
:100F20004041515C0A4A5043B0FBF1F0EBE70949FC
:100F30004843E8E702030405060708090A0B0C0DFD
:100F40000E0F1010010200000010024000127A0083
:100F5000001BB70000093D002DE9F84F040070D0D8
:100F60002078C04DC00749D06868C0F381000128CF
:100F700007D06868C0F38100022809D16868C003FF
:100F800006D52868800339D560680028E7D035E0A9
:100F90006068B0F5803F0BD010B1B0F5A02F11D034
:100FA000286820F480302860286820F4802002E03F
:100FB000286840F480302860606890B1FFF702FB39
:100FC00006460AE0286840F480202860F0E700BF69
:100FD000FFF7F8FA801B642873D828688003F7D5D8
:100FE0000CE0FFF7EFFA064605E000BFFFF7EAFA6C
:100FF000801B6428F0D828688003F7D420789A4EA4
:1010000080074FF001094FF0000839D5686810F0EB
:101010000C0F07D06868C0F38100022809D1686806
:10102000C00306D42868800714D52069012808D198
:1010300010E02069B0B1C6F80090FFF7C3FA074688
:1010400005E00AE1FFF7BEFAC01B0228C4D82868F1
:101050008007F7D52868616920F0F80040EAC100F0
:1010600028600DE0C6F80080FFF7ACFA074604E000
:10107000FFF7A8FAC01B022823D828688007F7D4F6
:10108000207800072CD57948A169D9B1C0F8009023
:10109000FFF798FA074604E0FFF794FAC01B02280E
:1010A0000FD8686A8007F7D571484FF4FA51006885
:1010B000B0FBF1F0009000BF0098411E0091FAD201
:1010C0000EE080E0C0F80080FFF77CFA074604E0FD
:1010D000FFF778FAC01B022875D8686A8007F7D432
:1010E0002078400760D5E8690027C00008D4E86987
:1010F00040F08050E861E869012700F080500090DE
:101100005C480168C90513D40168834641F48071C5
:101110000160FFF757FA824606E000BFFFF752FA78
:10112000A0EB0A0064284ED8DBF80000C005F5D516
:10113000E06801280AD008B1052813D0286A20F0F9
:1011400001002862286A20F0040002E0286A40F0CA
:1011500001002862E06841F2883B98B1FFF732FA5B
:1011600082460BE0286A40F004002862EEE700BFE8
:10117000FFF728FAA0EB0A0159455AD8286A8007D8
:10118000F6D50CE0FFF71EFA824605E0FFF71AFAE3
:10119000A0EB0A0159454CD8286A8007F6D41FB144
:1011A000E86920F08050E861E06988B36968C1F3BC
:1011B0008101022944D00228C6F8608004D0FFF7DC
:1011C00001FA044638E034E0FFF7FCF9074604E092
:1011D000FFF7F8F9C01B02282BD828688001F7D444
:1011E000206AB0F5803F05D16868A16820F400301E
:1011F00008436860D4E908010843696821F4741160
:1012000008436860C6F86090FFF7DCF9044606E022
:1012100025E000BFFFF7D6F9001B022809D828688F
:101220008001F7D51BE000BFFFF7CCF9001B0228B7
:1012300002D90320BDE8F88F28688001F4D40EE0BD
:101240000128F7D06868226A00F48031914204D105
:10125000616A00F47010884201D00120EAE70020A2
:10126000E8E70000001002400000424280044242D1
:10127000140000200070004010B5401EB0F1807FC7
:1012800001D3012010BD4FF0E02460610F216017F1
:1012900001F031F90020A06107202061002010BD7D
:1012A00070477047F8B5026804461068D168536902
:1012B00010F00F0F4FF0000553D003F0010601F4BA
:1012C000907737435FD0C20705D0CA0503D5226C9B
:1012D00042F001022264420705D5DA0703D0226CEE
:1012E00042F002022264820705D5DA0703D0226C9D
:1012F00042F004022264020707D501F020023243C3
:1013000003D0226C42F008022264226C002A34D0FE
:10131000800604D5880602D5204601F02EF8206804
:101320004069216CC0F38010090700D430B3204617
:1013300001F00BF82068416949061BD5416921F08D
:1013400040014161A06BA8B158494163A06BFEF711
:10135000E7FF002811D0A06B416B01B0BDE8F04061
:10136000084783060FD58B060DD52046BDE8F8400B
:1013700001F003B82046FFF794FFF8BD2046FFF7C1
:1013800090FF2564F8BD266B2023012E52D1C6069E
:1013900050D5CE064ED51068506800905069400672
:1013A0002AD5A16B086840680004000CEAD0A68D1D
:1013B0008642E7D9E0858869202818D0D06820F4D3
:1013C0008070D0602068416921F00101416120688E
:1013D000416921F04001416184F83E302563206875
:1013E000C16821F01001C160A06BFEF776FFA08DEF
:1013F000E18D401A81B219E0A08DE18D401A81B2D1
:10140000E08D0028BED00029BCD0D06820F49070B8
:10141000D0602068426922F00102426184F83E30C7
:1014200025632068C26822F01002C2602046FFF7E0
:1014300037FFF8BD05062BD50D0629D594F83D00DC
:101440002128F6D1A068B0F5805F01D12069B0B144
:10145000206A411C2162216800784860E08C401EAF
:101460000004000CE084E4D12068C16821F0800110
:10147000C1602068C16841F04001C160F8BD206AC8
:101480000088C0F308005060206A801C2062E5E7F5
:101490004006F3D54806F1D5D168204621F0400139
:1014A000D16084F83D3000F076F8F8BD3B230008A9
:1014B00070B5040004D094F83D00002510B106E09A
:1014C000012070BD84F83C50204600F023F8242011
:1014D00084F83D002068C16821F40051C1602046B5
:1014E00000F0A6FF2068016921F4904101612068A5
:1014F000416921F02A0141612068C16841F400512D
:10150000C1602564202084F83D0084F83E0000205E
:1015100070BD000030B585B00024009401940294A1
:1015200003940068184988422CD11848816941F415
:1015300080418161816901F480410491816941F0B8
:10154000040181618069124D00F0040004904FF4A1
:101550000070009002200190032003906946284605
:10156000FEF740FF2815CDE900046946284602949D
:10157000FEF738FF002203212520FFF7CBFB2520B3
:10158000FFF7BAFB05B030BD003801400010024043
:101590000008014070477047FEE700000148FFF770
:1015A00019B80000EC0400200148FFF775B80000EE
:1015B000EC04002038B5406A002190F83D202B4B08
:1015C00046F2A8141B68B3FBF4F3C3EBC30303EBAD
:1015D000830300933BB15B1E009303681B689B056C
:1015E00005D5009BF6E7036C43F020030364436BCF
:1015F00003B19962836B03B1996203681C6824F498
:1016000080641C604185436B03B15963836B03B1F4
:10161000596303681C6824F001041C6090F83D4085
:101620002023602C0BD0282434EA02020FD080F84B
:101630003D3080F83E1000BFFFF746F938BD80F816
:101640003D3080F83E100164FEF7C2FF38BD0268ED
:10165000136843F0010313600268136843F4806366
:101660001360016380F83D40E6E7000014000020AD
:1016700070B5044690F83D0094F83E10102901D052
:10168000402906D1222804D121680A6822F4006288
:101690000A60282131EA00024FF000054FF02006D1
:1016A00026D021684968090505D4602803D084F84C
:1016B0003D6084F83E50256320684168090537D5B0
:1016C000416821F400614160606B3D4990F8212040
:1016D000012A11D04163606BFEF722FE38B3206807
:1016E000016821F00101016084F83D60606B1CE03D
:1016F000256384F83D10DFE7A06B4163A06BFEF724
:101700000FFEA0B120684169C943490605D40069AC
:10171000616A0870606A401C60622068016821F09C
:101720000101016084F83D60A06B416B884710E0C7
:1017300094F83D10602910D04169C943490605D489
:101740000069616A0870606A401C60622046FFF7A9
:10175000BBF8206CC1071CD115E084F83D602564FE
:101760004169C943490605D40069616A0870606A25
:10177000401C60622068016821F001010160204680
:10178000FEF726FFE5E7810703D4410701D40007F0
:1017900004D52068416821F4E061416094F83D007F
:1017A000216C49070BD5282809D10648E06225633A
:1017B00084F83D6084F83E502046FFF74BF970BD39
:1017C000B51500080000FFFF01684A69D2435205C1
:1017D0000FD46FF480624A61002140F8301F20224C
:1017E00042738173026942F00402026101730120B5
:1017F00070470020704710B5C26A438D0168042B02
:1018000006D0438D032B08D0438D022B1DD012E050
:101810004A6822F480624A600CE04B6823F48063DB
:101820004B60042A06D0022A04D001680A6822F418
:1018300080620A6001680969426A1170416A491C44
:101840004162418D491E418510BD012A30D0102AC8
:101850002ED0042A30D0022A2ED00A6842F4007218
:101860000A6001680969426A1170416A491C416253
:10187000428D521E4285026812690A70416A491CF3
:101880004162418D491E418501684A6822F44072D7
:101890004A60202180F83D1090F83E200021402A27
:1018A00080F83E100CD012210163FFF7D4F810BD70
:1018B0000A6822F48062D3E70A6842F48062CFE7C4
:1018C0000163FFF761F910BD38B590F83D1022298A
:1018D00014D1418D032912D901680969426A117036
:1018E000416A491C4162418D491E4185418D032950
:1018F00004D10068416821F48061416038BDC26A4A
:10190000022AFBD0012901D00029F7D1274946F24C
:10191000A81300220968B1FBF3F101EB81010091EA
:1019200001682023009C641E009422D00C68A4054A
:10193000F8D40C6824F480640C6001684C6824F4CA
:10194000E0644C6001680969446A2170416A491C7D
:101950004162418D491E418580F83D3090F83E102E
:1019600080F83E2040291DD012210163FFF773F853
:1019700038BD046C44F0200404644C6824F4E06432
:101980004C6001680969446A2170416A491C4162DE
:10199000418D491E418580F83D3080F83E20FEF79C
:1019A00093FF38BD0263FFF7EFF838BD1400002045
:1019B000F8B50446C06A1E460D461746082807D0EB
:1019C000012805D010F5803F02D0206B122804D1E9
:1019D0002068016841F480710160134600224FF0D5
:1019E00001112046009600F04BFB40B120680068D2
:1019F000C00502D54FF4007020640320F8BD2069B3
:101A0000B0F5804F0ED00620216800EAD51040F0D6
:101A1000F000086133463A460B49204600F064FB6B
:101A200078B902E005F0FE0000E0E8B22168086144
:101A3000054933463A46891F204600F055FB0028E9
:101A4000DCD00120F8BD00000800010010B5C26A1A
:101A500090F83D1021290BD1418D51B1416A0268A6
:101A600009781161416A491C4162418D491E4185D5
:101A700010BD20230021082A13D0202A11D012F5EE
:101A8000803F0ED00268546824F4E0645460112250
:101A9000026380F83E1080F83D3000BFFEF7DCFFA7
:101AA00010BD0268546824F4E0645460026814684D
:101AB00044F400741460016380F83D3090F83E20D7
:101AC00080F83E10402AE9D1FFF75FF810BD000012
:101AD00010B590F83D1090F83E30C26A048DB4B154
:101AE000212903D0402B11D122290FD1418DE1B3FF
:101AF00090F83E10402942D0416A0268097811618D
:101B0000416A491C4162418D491E418510BD212910
:101B1000E8D120230021082A13D0202A11D012F561
:101B2000803F0ED00268546824F4E06454601122AF
:101B3000026380F83E1080F83D3000BFFEF78CFF56
:101B400010BD0268546824F4E064546002681468AC
:101B500044F400741460016380F83D3090F83E2036
:101B600080F83E10402AE9D100E002E0FFF70DF8CE
:101B700010BD0068416821F48061416010BDBDE87E
:101B8000104000F0F3B8000078B590F83E50C26AFB
:101B9000046B90F83D6000230168222E73D1066D1E
:101BA0000EB9402D6FD0056D1DB90569B5F5404FD3
:101BB0001BD0458D95B3468D484D012E20D0448DC8
:101BC000022C4DD00C6844F480640C6001684C68B1
:101BD000240579D5AA4273D0012A71D0082A6FD082
:101BE000102A6DD0202A6BD06EE04A698A69009273
:101BF0000A6842F480720A60016D491C016578BD73
:101C0000AA4214D10A6822F480620A6001684A6814
:101C1000120504D50A6822F4806217E0FFE74A69DA
:101C20008A6900920A6842F400720A6050E0082A49
:101C300010D0202A0ED0122C0AD0042A03D0022A57
:101C400001D0102AE6D10A6842F480620A603BE0C3
:101C5000012ADFD00A6822F480620A600168DEE7A8
:101C6000042A11D0022A0FD0102A0DD00C6844F497
:101C700000640C6001684C698C6900940C6824F461
:101C800080640C6008E025E00C6844F480640C601B
:101C900001684C698969009101684C68240517D571
:101CA000AA4207D0012A05D0082A03D0102A01D061
:101CB000202A0DD14A6842F480524A6008E0FFE7CA
:101CC0004A6842F480524A6001684A698969009111
:101CD000036578BD48698869009078BD0000FFFF02
:101CE00090F83E10402910D00169B1F5804F19D00D
:101CF000016DA9B3016D012910D1416C5FF0F102B2
:101D000001F4407142EAD11106E0016D0029416CF5
:101D100005D0C9B241F0010100680161704701F0CE
:101D2000FE01F9E790F83D102129416C09D0C9B2B4
:101D300041F0010102681161416B29B1896A49B919
:101D400002E001F0FE01F5E7816B0029E6D0896A27
:101D50000029E3D00068416841F4006141607047A8
:101D6000FFE7416CF02201F44071CBE710B590F829
:101D70003D10026D22B3026D012A2FD0026D022A9E
:101D80001DD122292FD0428D0AB1212933D0428D75
:101D9000002A14D1212912D101684A6822F4E06294
:101DA0004A6001680A6842F400720A600021016317
:101DB000202280F83D2080F83E10FEF7E6FE10BDA0
:101DC000C16C0129816C02D0C1F3072108E00268CF
:101DD000C9B21161016D891C016510BD816CC9B268
:101DE0000268116104E001680A6842F480720A60C6
:101DF000016D491CF0E7416A026809781161416A86
:101E0000491C4162418D491E418510BD38B50C46C3
:101E100090F83D2000212825954302680B4605D007
:101E200051699169009180F83C3038BD556825F4BE
:101E300080655560E243540700D50121120601D5A3
:101E4000828900E0028B80F83C3092B2FEF7C1FB41
:101E500038BD00002DE9F04190F83D40C26A0023F2
:101E600020261C4F01686FF48065082A01D0202AC3
:101E700001D1282C04D0212C16D04D61BDE8F08171
:101E8000C7624A6822F4E0624A6001684D610168F5
:101E90000A6822F480620A60036380F83D6080F87B
:101EA0003E30FEF7D7FDE9E7C7622122026380F8E2
:101EB0003D6080F83E304A6822F4E0624A60016882
:101EC0004D6101680A6822F480620A60FEF7BBFE79
:101ED000D4E700000000FFFFF8B590F83D6004462D
:101EE0000068416821F4E061416020680025416993
:101EF0000091016841F0010101602068016821F44E
:101F00008061016020684168090520D5474F222E75
:101F100048D02A2E46D0616B096849686185618D79
:101F200019B1216C41F004012164416821F4006180
:101F30004160606BFEF740FA012808D0606B476390
:101F4000606BFEF7EDF910B1606B416B8847608DF7
:101F500008B320684169C943490708D40069616A28
:101F60000870606A401C6062608D401E6085206859
:101F70004169C943490608D40069616A0870606A0A
:101F8000401C6062608D401E6085608D18B1206CC1
:101F900040F004002064206C00B32046BDE8F84007
:101FA000FFF766BBA16B096849686185618D19B14E
:101FB000216C41F004012164416821F40061416019
:101FC000A06BFEF7F9F90128C1D0A06B4763A06BA5
:101FD000FEF7A6F90028BAD0A06BB6E72A2E06D1E4
:101FE0002563282084F83D002046FEF72BFE94F858
:101FF0003D10202028290DD0216B222901D0222E2E
:1020000007D1256384F83D0084F83E502046FEF752
:1020100019FEF8BD0649E162256384F83D0084F8A5
:102020003E502046FEF716FDF8BD0000B51500082D
:102030000000FFFF70B516460D4604460DE0204631
:10204000FFF7C2FB08B1012070BD681C05D0FEF788
:10205000B9FA801BA84207D835B120684069C0434F
:102060004007ECD4002070BD002044F8300F202140
:102070006173A073216941F0200121612073E2E7BF
:102080002DE9F0471E4690460D460446C1F307472A
:10209000DDF8209008E0701C06D0FEF793FAA0EB64
:1020A0000900B0420FD876B12068012F18D080699E
:1020B00025EA00000004000C14D000214145EAD0BC
:1020C0000020BDE8F087002044F8300F2021617324
:1020D000A073216941F02001216120730120F0E704
:1020E0004069E5E70121E9E72DE9F0479A46914685
:1020F0000E46044600254FF02008C1F3074725E0AF
:1021000020684069C043400514D42068016841F448
:102110000071016021686FF480604861256384F874
:102120003D8084F83E50206C40F00400206484F828
:102130003C501FE0B9F1FF3F08D0FEF743FAA0EB97
:102140000A0149450CD8B9F1000F09D02068012FC8
:1021500013D0806926EA00000004000C0BD0CFE702
:1021600044F8305F84F80D80A573206940F02000AA
:10217000206125730120BDE8F0874069EAE770B56A
:1021800016460D4604460DE02046FFF71DFB08B13C
:10219000012070BD681C05D0FEF714FA801BA84210
:1021A00007D835B120684069C0430006ECD4002050
:1021B00070BD002044F8300F20216173A0732169A5
:1021C00041F0200121612073E2E70000114808B5C9
:1021D000816941F010018161816901F01001009174
:1021E000816941F020018161816901F02001009144
:1021F000816941F008018161816901F00801009164
:10220000816941F004018161806900F0040000905F
:1022100008BD0000001002400D4810B50B490160D8
:102220000C49416000214FF480428160C0E90312F3
:1022300041618161C1610162FEF748FB002803D062
:10224000BDE81040FEF747B810BD00000054004044
:1022500098040020A08601000D4810B50B490160CC
:102260000C4941600021F022C0E902124FF4804283
:10227000C0E904218161C1610162FEF727FB0028EA
:1022800003D0BDE81040FEF726B810BD005800404E
:10229000EC040020801A06000C4810B50A490160C1
:1022A0004FF4E1314160002181600C22C160C0E93E
:1022B00004128161C161FFF7FBF8002803D0BDE87B
:1022C0001040FEF708B810BD00380140400500205E
:1022D000FEE7FEE770477047FEF7B6BC30B58FB03B
:1022E00028216846FDF792FF14210AA8FDF78EFF0A
:1022F00001210804CDE90010002402940225049174
:10230000CDE90750000109906846FEF725FE08B1A7
:1023100072B6FEE70F20CDE90A054FF48060CDE9E3
:102320000C4002210AA80E94FEF726FD002801D0D9
:1023300072B6FEE70FB030BD704710B5406A00219D
:10234000C185C184FEF7ADFF10BD0168CA6822F4E3
:102350009072CA6001684A6922F001024A61016B09
:10236000012904D10168CA6822F01002CA60202144
:1023700080F83E1000210163704708B590F83E10C8
:10238000222901D0022008BD82684FF480539A426E
:1023900001D1016921B1816A9A421BD04AB10AE098
:1023A0000268816A5268C2F308020A80816A891C45
:1023B00008E0026972B10268526802F07F020A7096
:1023C000816A491C8162C18D491E0904090CC185BD
:1023D00003D019E002685268F1E70168CA6822F088
:1023E0002002CA600168CA6822F48072CA6001686B
:1023F0004A6922F001024A61202180F83E10016BF7
:10240000012903D0FFF7C6F8002008BD00210163B1
:102410000168CA6822F01002CA6001680A68D20620
:1024200002D50A6849680091818DFEF739FFEBE714
:1024300070B5044600680169E26821F44051114317
:1024400001612169A0680843616908432168CA687D
:1024500041F20C639A430243CA6020684169A26951
:1024600021F44071114341611E492068884202D124
:10247000FEF728FD01E0FEF715FD00EBC00101EBC2
:102480000012606864218000B2FBF0F3B3FBF1F34B
:102490006FF018067343B2FBF0F5B2FBF0F605EBF4
:1024A0008305322303EB0515B5FBF1F5B6FBF1F619
:1024B00005F0F00505EB0615B2FBF0F6B2FBF0F007
:1024C000B0FBF1F06FF01802504306EB800003EB15
:1024D0000010B0FBF1F0216800F00F002844886084
:1024E00070BD0000003801400148FEF7DBBE00006F
:1024F00040050020FEE70907090E002804DB00F173
:10250000E02080F80014704700F00F0000F1E02098
:1025100080F8141D7047C000401EFDD270470000B7
:10252000A8B0FEF799FBFFF7D9FEFFF74FFEFFF7C4
:1025300093FEFFF7B1FEFFF76FFE02A800F054F81C
:1025400002A800F06BF802A800F0C4F902A800F09D
:1025500065F8234902A800F0C6F90F2000900A236D
:102560001E22322102A800F082F802A800F0B2F97F
:102570000124DFF8708005264FF01F0902A800F043
:102580004DF894FBF6F0211D8DB280B204EBD471AE
:10259000CDE90050A9EB6107BAB20F23222102A8AE
:1025A00000F0F9F894FBF6F080B2CDE90050BAB231
:1025B0000F23542102A800F0EEF898F8001009B19A
:1025C000641C00E0641E142C01DB002102E0002CDE
:1025D00002DC012188F8001002A800F07BF9CDE7A9
:1025E000E23300080700002010B50446084B094AF2
:1025F000094900F0C1F9204600F09BFC002120466B
:1026000000F0A7FC2046BDE8104000F007B800002D
:1026100041330008E92F0008043E000801680A7CE5
:1026200090F83810406B5143C900FDF7CDBD2DE93E
:10263000F8431C4680461019401C80B200900819CF
:10264000401C83B21546101B82B20E46081B81B295
:10265000089F404600F026F9002806D023462A4667
:1026600031464046009700F021FABDE8F8832DE995
:10267000F8431C4680461019401C80B2009008198F
:10268000401C83B21546101B82B20E46081B81B255
:10269000089F404600F006F9002806D023462A4647
:1026A00031464046009700F093FABDE8F88338B50C
:1026B0000024009400F002F838BD00003FB581B05E
:1026C000044690F88C00089900283AD0BDF8100014
:1026D000002836D0012811D9022902D0032907D0B9
:1026E0000CE0BDF80820101A401CADF8080005E009
:1026F000BDF80C20101A401CADF80C0011F00105BB
:1027000021D0B4F84810BDF80800814219D8B4F8B7
:102710004A10814215D9B4F84E30B4F84C2004A9BF
:102720000DF10C0000F0A4F900280AD00095206BF0
:10273000BDF81030BDF80C208568BDF808102046A3
:10274000A84705B030BDB4F84C10BDF80C0081426C
:10275000F7D8B4F84E108142F3D9B4F84A30B4F83F
:10276000482004A902A8DDE708B5B0F84C30934230
:1027700010D8B0F84E3093420CD9B0F848308B42A4
:1027800008D8B0F84A308B4204D9002300930123C3
:10279000FFF794FF08BD2DE9FF4F83B01C46DDE92C
:1027A000106502EB060A1FFA8AF001EB040900909B
:1027B000174688461FFA89F3039800F073F800283B
:1027C00067D008EB05001FFA80FB781981B2A9EBEE
:1027D0000500401E80B2CDE90110AAEB0500401EA5
:1027E0001FFA80F902200A4600902B4659460398AA
:1027F000FFF71DFF01200090DDE902102B46019A32
:10280000FFF715FF042000902B464A4659460398CF
:10281000FFF70DFF08200090DDE902102B464A4625
:10282000FFF705FF601B711B401B491B8DB20BF1AD
:1028300001011FFA81FA019980B2491C1FFA81FB3C
:10284000032810D3801E80B2814603463A46514683
:10285000761E0398FFF72BFFB81982B24B465146FC
:102860000398FFF724FF032D13D3AD1EADB22B4603
:102870005A464146641E039800F00EF808EB040027
:1028800081B2039807B02B465A46BDE8F04F00F0DE
:1028900003B807B0BDE8F08F38B501240094FFF706
:1028A0000DFF38BD70B50D461E460446B0F84E10FB
:1028B000B0F84C00049B00F041FA002809D0B4F8AD
:1028C0004A10B4F8480033462A46BDE8704000F08C
:1028D00035BA70BD10B5044600F0BFFA2046BDE819
:1028E000104000F02EBB10B50446806D884209D020
:1028F00004F17400A16500F07BFA2046BDE81040A9
:1029000000F056B810BD00000149C16570470000D5
:10291000252D00080021A0F85010A0F854104FF603
:10292000FF71A0F85210A0F85610016B49680847D3
:1029300070B5044600250498A565E362616384F8D8
:10294000382084F8395084F86D5084F8915084F818
:102950008D50012184F8921084F89310206301684F
:10296000204688472046FFF7D5FF2046FFF7CCFFDB
:1029700084F8705070BD00007CB50C46009313467F
:102980000546084A084900F0ECFA01A800F02AFAC6
:102990000146064B00949DF804202846FFF7C8FF27
:1029A0007CBD00001131000839320008552D0008A7
:1029B00010B5816D00291AD090F9813080F88E30E1
:1029C00090F9822080F88F2090F88D1000290ED089
:1029D00001290DD090F97E4090F980100C449C4262
:1029E00001DD80F88E408A4201DD80F88F1010BD35
:1029F00090F983108B4201DA80F88E1090F98410E0
:102A0000F1E738B50446B0F856000090B4F85230FB
:102A1000B4F85420B4F850102046FFF743FF18B321
:102A2000012084F88C00B4F84810B4F850008142BA
:102A300001D2A4F84800B4F84A10B4F85200814218
:102A400001D9A4F84A00B4F84C10B4F854008142FB
:102A500001D2A4F84C00B4F84E10B4F856008142EC
:102A600001D9A4F84E0038BD002084F88C0038BD90
:102A700030B504880D882544ADB2AC4205D99C42DE
:102A800002D25D1EADB200E014469C4201D29542D6
:102A900001D8002030BD944200D214469D4200D996
:102AA0001D460480281B0880012030BD2DE9FF4F02
:102AB000C3F1010083B006B258429146DDF840A050
:102AC00040008B4601271C46CDE9009A00250FFAED
:102AD00080F85B462246294615E0002E08DB08F107
:102AE00002000FFA80F8641E06EB0800A4B206B2DA
:102AF0006D1CBF1C3FB2CDE9009AADB2F01906B211
:102B00005B4622462946039800F005F8A542E4D327
:102B100007B0BDE8F08F2DE9FF4F83B00E46DDE929
:102B2000108703EB060002901546A8EB0600019003
:102B300003EB05001C46F907A8EB050B00900DD030
:102B400002981FFA8BF281B20398FFF70DFE0198ED
:102B500082B2009881B20398FFF706FEB907A4EB92
:102B6000060AA4EB05090DD51FFA8BF21FFA8AF1AC
:102B70000398FFF7F9FD01981FFA89F182B20398D3
:102B8000FFF7F2FD08EB0504390708EB06050BD546
:102B90000298A2B281B20398FFF7E6FD0098AAB2AC
:102BA00081B20398FFF7E0FD78070ED5A2B21FFAB5
:102BB0008AF10398FFF7D8FD039807B0AAB21FFA6D
:102BC00089F1BDE8F04FFFF7CFBD07B0BDE8F08F4A
:102BD0002DE9FF4FC3F1010083B006B25842914680
:102BE000DDF840A040008B4601271C46CDE9009A45
:102BF00000250FFA80F85B462246294615E0002E94
:102C000008DB08F102000FFA80F8641E06EB0800EA
:102C1000A4B206B26D1CBF1C3FB2CDE9009AADB2A2
:102C2000F01906B25B4622462946039800F005F8E3
:102C3000A542E4D307B0BDE8F08F2DE9FF4F83B084
:102C4000164610980F46A0EB060B03EB0700019009
:102C50001098DDF84490A0EB070098465FEAC97130
:102C600003EB060A02F1010507F1010400900FD001
:102C70000198ABB281B21FFA8BF20398FFF70CFEFA
:102C80000098A3B282B21FFA8AF10398FFF704FEFC
:102C90005FEA8971A8EB0707A8EB06060DD5ABB272
:102CA0001FFA8BF2B9B20398FFF7F6FD0098A3B2B2
:102CB00082B2B1B20398FFF7EFFD5FEA09700DD55C
:102CC0000198ABB281B2109A0398FFF7E5FDA3B269
:102CD0001FFA8AF1109A0398FFF7DEFD5FEA497048
:102CE0000ED5ABB2B9B2109A0398FFF7D5FD109A82
:102CF000039807B0A3B2B1B2BDE8F04FFFF7CCBD67
:102D000007B0BDE8F08F38B5C58F049C0094521B06
:102D1000C46A92B2A04738BD38B5049C0094FFF74E
:102D2000F2FF38BD0020704708444FF6FF7201786B
:102D3000407802EA0121084480B270478A4205D2F5
:102D4000834201D89A4203D9012070478342F9D8BF
:102D500000207047F0B502F007060124B4400025BA
:102D600090F892E0E7B2DDF814C02C46BEF1010FF6
:102D700001D83D4600D03C46076822F00702BCF16E
:102D8000000F3F7C07FB02F7BAB2476B3A4411448D
:102D900009D108785B1E284360401B0401F8010B31
:102DA0001B0CF6D1F0BD0A78761C2A436240A3F1D1
:102DB00001030A7016F007069BB206D06A06150ECC
:102DC0006206140E002BEED1F0BD428F114490F834
:102DD0009220012A03D800BF4FF00105F2D04FF036
:102DE0000104EFE7082101700048704798000020B7
:102DF00070B5054608782870487868708878A8709B
:102E0000C878E870087928714879687188790C4623
:102E1000A871E079E871207A2872607A6872A07AE5
:102E2000A872E07AE872207B2873607B6873A07BCD
:102E3000A873E07BE873207C287411212046FFF7FB
:102E400073FF688213212046FFF76EFFA8821521C9
:102E50002046FFF769FFE88270BD2DE9F84306467A
:102E600090F8387090F83950006800244FF6FF78D9
:102E700090F81190316830462A460B7C716B04FB48
:102E800003FC1FFA8CFC08EACC0C61440091002181
:102E900000F040F8641C6D1CE4B2EDB2BC4201D2FB
:102EA0004D45E7D3BDE8F883F0B590F838204FF6EC
:102EB000FF75036805EAC2018187197C05EAC10133
:102EC000418790F8394005EAC401C1875E7CA718A4
:102ED000B74201D9321B92B205EAC20220F8401F64
:102EE00011444180998A8180D98AC180F0BDFFF761
:102EF000DBBF0021A0F84810B0F84410A0F84A1039
:102F0000B0F84010A0F84C10B0F84210A0F84E10E5
:102F1000FFF777BD1CB58DF805108DF80620049CD1
:102F20008DF804300094012284686B460F21A0477D
:102F30001CBD30B484680023A44630BC1A460A2164
:102F4000604730B484680023A44630BC1A46102180
:102F5000604730B484680023A4460A4630BC0B2185
:102F600060472DE9F04115460E460446069F00F0E5
:102F700009F86761A660C4E903532046BDE8F04143
:102F800000F012B8002140F8081B064A02604260B7
:102F90008260C260C17681770161FF21017780F88C
:102FA000201070473D33000830B484680023A446E5
:102FB00030BC1A460921604730B404690023A44696
:102FC00030BC1A461921604713B50122046901ABD0
:102FD0001721A0471CBD30B404690023A44630BCAF
:102FE0001A4618216047000038B5184818290DD036
:102FF00004DC142907D0172923D10AE0192916D097
:1030000020291ED11FE0FFF727F91CE000210170E5
:1030100019E00F4C08E000BF017813F8015B65541C
:10302000491C521E0170D2B2002AF5D10BE04FF4B8
:103030007A7100910378064A78210648FDF70EFD63
:1030400008B1002038BD012038BD0000000000207C
:1030500018000020EC04002030B4C4680023A4460B
:1030600030BC1A461921604730B4C4680023A44616
:103070000A4630BC1621604730B4C4680023A44619
:103080000A4630BC1521604730B4C4681346A446D4
:103090000A4630BC17216047F8B50C464FEA0005D8
:1030A00014F8011B182924D00EDC152919D0162973
:1030B00017D0172923D120788DF800006A46012106
:1030C0002846FFF7E1FF0AE0192912D0FE2916D1A0
:1030D00022788DF800202921284600F066F9641C2A
:1030E000DEE722788DF80020EE6800232846B047FE
:1030F000F5E70023EE681A462846B047D0E7F8BD4A
:1031000030B4C4680023A44630BC1A461821604776
:103110002DE9F041DFF8B08014460646A1F1140213
:10312000002798F800001D46062A4AD2DFE802F080
:103130002F03161B3E4310B13046FFF73DFF3046CC
:10314000FFF749FF00213046FFF73EFF214630469A
:10315000FFF73AFF012088F8000029E021463046B9
:10316000FFF732FF24E050B13046FFF725FF06E0BD
:103170001821304600F01FF9183CE4B21835182C1D
:103180002A46F5D82146304600F015F90EE096F8AB
:103190002400FF2802D1782086F8240037692B46C6
:1031A00022463046BC46BDE8F041604788F80070D2
:1031B0000120BDE8F0810028F8D03046FFF7FCFE82
:1031C000F4E70020F5E700000100002070B50023BF
:1031D000456904461A462821A8470023E5681A468F
:1031E00014212046A84701224B21204600F0DDF89B
:1031F000206829210279204600F0D7F800224B21CF
:10320000204600F0D2F8206829210279204600F0FB
:10321000CCF801224B21204600F0C7F82068292174
:1032200042792046BDE8704000F0BFB80160897C5B
:1032300080F822107047000070B50C46054600F07B
:1032400019F888B9092C0BD00A2C01D0002070BDC8
:103250002846FFF7BBFF05492846FFF71DFF03E09F
:1032600003492846FFF7E2FF012070BD363E000803
:10327000383F00082DE9F0411E46144605460B294B
:1032800008D00D290ED00E291ED00F2927D00020DE
:10329000BDE8F0811AB12849FFF7FEFE4AE0264951
:1032A000491FF9E74AB124490C31FFF7F5FE2868B8
:1032B00090F8130085F822003CE01F49491DFFF7F4
:1032C000EBFE2868807CF5E7FFF71AFF812128468E
:1032D000FFF7D2FE21462846FFF7C6FE27E0FFF79C
:1032E0000FFF707995F8221001EBC000C7B24021A2
:1032F0002846FFF7C1FE102040EA17112846FFF7C5
:10330000BBFE07F00F012846FFF7AEFEB07940F094
:10331000B0012846FFF7A8FE30793268C006010EDA
:103320002846FFF7B1FE641E14F0FF04F4D12846CE
:10333000FFF792FE0120ABE7153E00080020704722
:1033400010B54D2919D00CDC2B2918D004DC292903
:1033500020D02A290ED114E02D291FD04C2909D1C3
:103360000BE0002250291DD051291BD0522919D021
:10337000532917D0012180F82710012010BD00BF6C
:10338000FBE700204FF4A07100BF401C80B28842D0
:10339000FAD3F2E71046FDF713F8EEE70520FFF742
:1033A000BAF8EAE780F82720E7E730B44469002359
:1033B000A44630BC60472DE9F04115460E46044650
:1033C000FFF709FE40212046FFF7FEFD27692B4647
:1033D000324617212046B8472046BDE8F041FFF7A6
:1033E000EBBDBE00030204040205050D0FFFFD0A3C
:1033F000FD0AFE018D03360A02200500C20A2107DC
:10340000A1428983122207335E8AC4122316A9427D
:10341000BD621666D13048599845C320656116666D
:1034200019002411C6BAAB341C925A120E59D46931
:10343000D8D20C2512A9421D2DEA2594F21CC923CD
:1034400031897A53002615B942BD354772448E3210
:1034500031A946711247A13644012706315E890120
:103460002808C2BA19A57F0A290AC2BA8928E92FF1
:103470000A002A0944D21A654894282B0A5546ABFB
:10348000301AA430022C0732BE9944012D0614CE06
:103490008A212E06114289002F0AA342AA96A82546
:1034A0002A013014A8C2AC210B93744CB448CA94BE
:1034B000704DC26C88003108A2C28928E90F320C15
:1034C000A742ACAD92C669AFC3103311A8C29C61CC
:1034D0008FD3214772594EC26C88003411A8C28C18
:1034E000BC9AA4499AA451980D739E00350FA74227
:1034F0009C418AE3212FC7623444003611A8C22CB4
:10350000358F93211293D89C84D91001370CA6C211
:103510008B6B310DD330AD013813A8C2AC210BA396
:10352000301BB23089CD49980D11003911A8C2ACB9
:10353000210B93D89C84D290C4792A013A06614623
:1035400089303B0872C2993C51003C0866C64BC9A1
:10355000281B3D0846CA8B3B3A0C3E0966C60BD970
:103560002819013F0EA8C2AC210B9358EE9E53328E
:10357000004015A942AD414B935C93A48A54D18677
:10358000248772689000410EA8C2AC210B93581E8C
:103590000EB1E7004211A8C29C210BA3301AA63439
:1035A000895D936102430EA8C2AC414AF5DE9134B5
:1035B0001A1400440DA8C29C414A93D8AFC93001E7
:1035C000450EA6C2AB2109D37450D2723C04460DFD
:1035D000A6C2AB2109D37450D2AE004714A942ADA4
:1035E000414B931CC9911C09075D4FD26C90004858
:1035F0000BA8C28CD87938C49E034907A142898799
:10360000004A09B33E8AA9BF94004B10A7428C30F0
:10361000099330C9A2410A93D4354C09A4C28AAC9B
:103620001F43014D16AB422E4D8B92280943311496
:1036300043311443311443B1004E0BA8C2AC210BEB
:1036400093D89F034F0EA942AD414B93DCF724CD95
:1036500006095010A8C2AC210B93D8794C9221CA0C
:1036600073005111C93AAD414B93DCF724CD061DCF
:10367000C921015210A8C2AC210B93D8794C9241B8
:1036800089E5005313A8C2AC210BA33C47861CC993
:10369000113909B32102540AA7428C4316F73700A7
:1036A000550CA8C28CD89F93301B22005611A8C27B
:1036B0008CD89C84511885591446A9AC015716AB77
:1036C000428E30144331144331144331142B5112C0
:1036D0006526005811A7428C34C92A6192C6691226
:1036E0002659250D590DA8C28CD8731266439CD754
:1036F000005A0EA7428C431AA7E5B49C0E43005B08
:1037000008C2BA89A57F115C0AA3428AA816B545EA
:10371000055D08C2BA09A57F195E08355AAB2CA908
:10372000055F0718BE8C8300600732DE89280961B7
:103730000D88C2AC210B93D83949A3616210A8C28D
:103740008CBC324462123B2761364400630D8742D1
:10375000AC210AE5F6301A1200640EA8C2FCD29021
:103760001467E724CC8608651288C2AC210B93301D
:10377000CA4A99122661364400660AA3429AA934BD
:10378000449D006711B8B6AC210B93D83909A52127
:10379000C9E37002680CA8C28CBC32446212FB1CE4
:1037A0006909A2C2892CE953006A09C2BA992CE9B5
:1037B00017056B0EA7428CB89864D1208549EA1A88
:1037C0006C08A2C289A43F056D138B422E4D8B92CB
:1037D000280943311443311443B1006E0B88C2AC45
:1037E000210B93D8E7006F0E88C2AC210B93D83918
:1037F00009B321027010A8BAAC210B93D8794C926E
:1038000021CA7300710FA8BAAC210B93D83909A54E
:1038100021C90B72098542AB250B7B04730E8742CD
:103820009C4189F3418FE3614800740AA3428A28CE
:103830001AA2DE04750B88C28CD8E724CC860876E1
:103840000F88C28C584EC228CCA2304A650D77131F
:103850008B428E30144331144331142B51126526A0
:1038600000780E87428C34C92A699C2659250D7927
:103870000EB8B68CD8E7249486248FC3097A0A87B9
:10388000428C43DAE761087B0BC5B93A296C52C315
:10389000AE027C06C13A890F7D0CC4BA8A306B54E3
:1038A000B24E19007E0726CE1BC902A00500C20A2F
:1038B000A108A13A89641804A214A73EBC74889296
:1038C00048CAA22CCAA23089A221CC00A30DA742CB
:1038D000BC2DAE0E5A9C968721A40C66CA8B30195B
:1038E000A24E431206A513A7428C544DB2284B8614
:1038F000214AA261C8E21A00A608C13A89411A0405
:10390000A70FC53A9B414CC325D392310D0705A89B
:103910000614E68A28A9149942AD414B9368525285
:10392000255552694AD26C9000AA0A64D29A219213
:10393000927108AB0C56C6AB4A944459944501ACFD
:103940000736CE8B6B01AE169942AD414B9348932F
:1039500092C82625919444499A0D1200AF07176624
:103960008C4300B00944DA1A25921205B10A554673
:10397000AB301AA46810B208435A0A2D4906B3089E
:10398000435A8A451A02B40732E2192501B50CA838
:10399000BA8CD8E77119123D07B615A742AC411988
:1039A00092611996614986245AC2244CC224B706F2
:1039B000114E8900B80632378A68B90742DA09A57C
:1039C00001BA0A64D21A2592127508BB0D56C68B2D
:1039D000288BB22889922802BC11A8C20CAD5318BA
:1039E000C5791C2551A5B6A401BD11A8C20CAD53C3
:1039F00018C5791C69611246D900BE15A9428D2DE2
:103A0000D3C2289BF21CC9A3248B92289BD200BF4F
:103A10000EA8BABC9C92C7CD7212664304C011C8EE
:103A2000C2BC1CC9E1210B93581E0EB17300C1101A
:103A3000C8C2CC38C7872C4C627938C4CE01C211B9
:103A4000C8C2CC38C9D1210B93581E0EB17300C324
:103A500011C8C22CA9A4A3431626B13C1C62E700DE
:103A6000C40FC8C2AC3A3A646112CBC321F61CC57C
:103A700011C8C23C350AA370C8C224968743EC1C07
:103A8000C616AB42AE2119924CAC86693828C31ACF
:103A9000A6611A8A9521C711D8B6AC414AF5DE91C4
:103AA000341AD41C493500C810C6C2AB38C78624A6
:103AB0004CD34149E37808C910C6C2CB3A362461D9
:103AC0009A0E4A1AC74300CA11C6C2BB30C9A12107
:103AD00009D37450D2381E02CB10C6C2AB3A32247E
:103AE000619A0E4A5A8E8700CC09C24189284BFA46
:103AF00003CD09C2C2192DE92F00CE09C3C199C651
:103B0000A8BF00CF0AC3C189248CFA1700D015A919
:103B1000C1AC414BA33889872D8993388993341AD6
:103B20002600D10EC8C22CA9A4A3431626B19F0318
:103B3000D211C942BD1CCA29839626B9F724CD06E5
:103B400009D311C942DD3CA70C5A9AE4DE93341B19
:103B50002400D411C942CD3CC9F1414B93DC7B9286
:103B6000668304D512C9423D258C727CD0D224F7DD
:103B70009EA4D92001D611C942AD2C87072D4D72C4
:103B8000DF93341B2400D70A55468B2CA9556A01B4
:103B9000D816A942AD41A9266922465AA66552A85F
:103BA000A4499A248304D90EC8C2BC1CC9627F4EA2
:103BB000C26C8800DA0DC8C2CC388CFD3909B3213B
:103BC00002DB0DC8C23C352AFB7312664304DC0DD0
:103BD000C8C2AC3A16FB7312664304DD0EC8C2CCF1
:103BE000388C3D276136C4790DDE10A8C28C3C1993
:103BF0002231899DC72419A21CDF10A7429C210AEB
:103C00009330C9A230493D2600E010B8C2BC1CC99F
:103C1000E1210B93D83949A361E110B8C2CC38C770
:103C2000872C4C62E7248D8601E210B8C2CC38C9DB
:103C3000D1210B93D83949A361E311B8C22CA9A4AF
:103C4000A3431626B1739246C300E40FA8C2AC3A50
:103C50003A6461123B2769340CE512C8C23C350A4C
:103C6000A3541DB230899D93341A06E6148CC29E6B
:103C700069883231CED22994924CB46DD13601E7A5
:103C80000FB736AC210AE5F6301AD23C9400E8159D
:103C9000B8C2AC1CC9F1210B9330CA4A99122661F3
:103CA000364400E914B8C2CC38C7872C4CC2282B44
:103CB000654A9884D91001EA15B8C2BC38C9E12117
:103CC0000B9330CA4A99122661364400EB13A8C2FE
:103CD000AC3A3A64611246592953C224CC8608ECA6
:103CE00009B3C1892C8DFA16ED09B2C2192DE95319
:103CF00000EE09B3C199C6A86F01EF09A3C18924D9
:103D00008CFA16F010A7421C5D1CD46C88B2554D7D
:103D1000B26C02F10EB8C22CA9A4A3431626B1CFEF
:103D200001F211B8C2BC1CC9E1210B93D83909B307
:103D30002102F310B8C2CC38C7872C4C62E724CCE0
:103D40008608F411B8C2CC38C9D1210B93D83909EF
:103D5000B32102F511B8C22CA9A4A3431626B1734E
:103D600012664304F610A8C2AC3A3A6461123B27CB
:103D700061364400F7095546AB7CD02300F8138820
:103D8000C2AC21292661A24552A684499824430445
:103D9000F90EB8C2BC1CC9C1D8E724CC8608FA0EFB
:103DA000B8C2CC3847639F93301B2200FB0EB8C2C9
:103DB000CC38C9B1D8E724CC8608FC0DA8C2AC3AEF
:103DC00016FB9C84D91001FD11E8B6CC3847639FDF
:103DD00093501A923C0E2700FE11C8BA8CBC324494
:103DE00062123B8F493244790EFF10D8B6AC3A16B6
:103DF000FB9C84D290E471380100000004FFFF00B6
:103E000000000000EF2E0008F32E0008192D000816
:103E10001815AF19FF1815AE19FF1815A115C819F7
:103E2000FF1815A015C019FF1815A115C019FF1806
:103E300015A015C819FF1815AE15D5168015A816AA
:103E40003F15D316001540158D16141520160015B4
:103E5000A115C815DA1612158116CF15D916F11548
:103E6000DB1640152E15A415A619FF1815AE15D58D
:103E7000168015A8163F15D316001540158D16147B
:103E80001520160015A115C815DA1612158116EFA2
:103E900015D916A115DB1600152E15A415A619FFA8
:103EA0001815AE15D5168015A8163F15D316001592
:103EB00040158D16141520160015A115C815DA1613
:103EC00002158116CF15D916F115DB1640152E15E2
:103ED000A415A619FF1815AE15A415D5165015A8CA
:103EE000163F15D31600154015AD168B15D91622A1
:103EF00015DB16351532158116FF15A615DA1612C3
:103F000019FF1815AE15D5168015A8163F15D3162E
:103F1000001540158D16141520160015A115C01595
:103F2000DA1612158116CF15D916F115DB164015C4
:103F30002E15A415A619FF000001140A646432327C
:103F400000127A000004289610080000800040004B
:103F50000001140A6464323200093D00000428960E
:103F60001008020280004000000000000000000075
:103F7000010203040607080900000000010203040F
:103F8000A03F0008000000201800000028010008E1
:103F9000B83F000818000020D00B000044010008C2
:103FA00000000000000000010100000010000000FF
:083FB000000000000024F400F1
:04000005080000ED02
:00000001FF
